:1000000072C000009EC000009CC000009AC00000AA
:1000100098C000007CC1000063C1000092C00000D5
:1000200090C000008EC000008CC000008AC000009C
:1000300088C0000086C0000084C0000082C00000AC
:1000400080C000007EC000007CC000007AC00000BC
:1000500078C0000076C0000074C0000072C00000CC
:1000600070C00000AAC100006CC000006AC000009F
:1000700068C0000066C0000064C0000062C00000EC
:1000800060C000005EC000005CC000005AC00000FC
:1000900058C0000056C0000054C0000052C000000C
:1000A00050C000004EC000004CC000004AC000001C
:1000B00048C0000046C0000044C0000042C000002C
:1000C00040C000003EC000003CC000003AC000003C
:1000D00038C0000036C0000034C0000032C000004C
:1000E00030C00000780211241FBECFEFD1E2DEBF86
:1000F000CDBF00E00CBF12E0A0E0B2E0E2E9F8E022
:1001000000E00BBF02C007900D92AE30B107D9F7E7
:1001100022E0AEE0B2E001C01D92AB31B207E1F7E0
:1001200010E0C3E7D0E000E005C021970109802F6F
:10013000FE01A5D3C237D10780E00807B1F7CCD1C3
:10014000A6C35ECF87B1876F87B988B1807888B939
:10015000089586E69EE00197F1F7000040984198E7
:1001600080E388B9429AEFEFF7E43197F1F700C0E6
:1001700000004298E6E6FEE03197F1F70000409873
:10018000419888B9429AEFEFF7E43197F1F700C050
:1001900000004298E6E6FEE03197F1F70000409853
:1001A000419888B9429A8FEF97E40197F1F700C020
:1001B00000004298E6E6FEE03197F1F70000409833
:1001C000419880E288B9429A8FEF97E40197F1F75E
:1001D00000C000004298089598B19F7098B998B1F6
:1001E000282F207F922B98B940984198429AEFEFA0
:1001F000F7E43197F1F700C00000429898B19F7082
:1002000098B998B18295807F892B88B94098419898
:10021000429A8FEF97E40197F1F700C000004298EF
:10022000089597DF86E69EE00197F1F7000088E2E7
:10023000D3DF81E0D1DF86E0CFDF8EE0CDDF80E865
:10024000CBCF089598B19F7098B998B1282F207F8F
:10025000922B98B9409A4198429AEFEFF7E4319780
:10026000F1F700C00000429898B19F7098B998B11A
:100270008295807F892B88B9409A4198429A8FEF66
:1002800097E40197F1F700C0000042980895CF93DA
:10029000DF93EC018881882329F02196D3DF8991AF
:1002A0008111FCCFDF91CF910895823069F018F46D
:1002B000813031F00895833059F0843069F0089529
:1002C0008FE7860F89CF08958FEB860F85CF08952E
:1002D00083E9860F81CF089583ED860F7DCF089542
:1002E0001F920F920FB60F9211248F939F938091BC
:1002F000190290911A02019690931A0280931902A2
:100300009F918F910F900FBE0F901F9018951F9285
:100310000F920FB60F9211248F939F938091170223
:1003200090911802019690931802809317029F9162
:100330008F910F900FBE0F901F901895F89481B178
:100340008F6081B982B1807F82B9EAE0F1E080817B
:1003500088618083EBE0F1E0808188618083E1E265
:10036000F1E010828FEF8093250191E090932401BA
:10037000109229018093280110922B0180932A0169
:1003800010922D0180932C0189EA809320018BE04B
:10039000808378940895F894E1ECF0E01082109254
:1003A000C00086E08093C2008FE58093C400109265
:1003B000C50088E98083789408951F920F920FB644
:1003C0000F9211240BB60F922F933F934F935F938D
:1003D0006F937F938F939F93AF93BF93EF93FF930D
:1003E000E6ECF0E040814083809110029091110290
:1003F0009C012F5F3F4F3093110220931002FC01AC
:10040000EE5EFD4F40832430310509F052C010925A
:10041000110210921002E2E1F2E0808161812281FA
:100420009381883391F49A3709F043C082B1807F79
:1004300082B982B1866082B9EEE0F2E06083218306
:100440006093280120932A0134C0823389F49A37BB
:1004500081F582B1807F82B982B1896082B9EEE094
:10046000F2E0608321836093280120932A0121C058
:100470008337B1F49A37E9F41092890070E080E094
:1004800090E06FD12BE734E14EEE5FE3D6D020E071
:1004900030E04CE052E46DD038D16093880009C060
:1004A000823639F49A3729F4613311F4439A01C042
:1004B0004398FF91EF91BF91AF919F918F917F9161
:1004C0006F915F914F913F912F910F900BBE0F90C5
:1004D0000FBE0F901F9018955EDFF89433DE78946E
:1004E000A0DE80E092E0D3DE61E082E0DEDEFFCFDE
:1004F000F8943B9A43987894F89481B18F6081B9CD
:1005000082B1807F82B9EAE0F1E0808188618083F6
:10051000EBE0F1E080818861808378948EE092E066
:100520000DDFF894259A2D9AE1E8F0E010828CEF27
:100530008093850081E08093840093E0909389000C
:100540008FEF8093880090938B0080938A00909324
:100550008D0080938C0090938700809386008BEAB7
:1005600080938000109282008CE0808378940895BC
:100570005058BB27AA270ED048C139D130F03ED100
:1005800020F031F49F3F11F41EF42EC10EF4E095DB
:10059000E7FB24C1E92F4AD180F3BA17620773073A
:1005A0008407950718F071F49EF562C10EF4E0958A
:1005B0000B2EBA2FA02D0B01B90190010C01CA011D
:1005C000A0011124FF27591B99F0593F50F4503EC8
:1005D00068F11A16F040A22F232F342F4427585FBA
:1005E000F3CF469537952795A795F0405395C9F7D2
:1005F0007EF41F16BA0B620B730B840BBAF091508A
:10060000A1F0FF0FBB1F661F771F881FC2F70EC028
:10061000BA0F621F731F841F48F4879577956795FB
:10062000B795F7959E3F08F0B3CF9395880F08F0E4
:100630009927EE0F9795879508950CD0E6C0DED0E8
:1006400040F0D5D030F021F45F3F19F0C7C0511110
:1006500010C1CAC0EBD098F39923C9F35523B1F365
:10066000951B550BBB27AA2762177307840738F021
:100670009F5F5F4F220F331F441FAA1FA9F333D080
:100680000E2E3AF0E0E830D091505040E695001C34
:10069000CAF729D0FE2F27D0660F771F881FBB1FF0
:1006A000261737074807AB07B0E809F0BB0B802DCA
:1006B000BF01FF2793585F4F2AF09E3F510568F016
:1006C0008DC0D7C05F3FECF3983EDCF386957795FD
:1006D0006795B795F7959F5FC9F7880F911D969518
:1006E000879597F90895E1E0660F771F881FBB1F74
:1006F000621773078407BA0720F0621B730B840B21
:10070000BA0BEE1F88F7E095089598D088F09F57B0
:1007100090F0B92F9927B751A0F0D1F0660F771F4D
:10072000881F991F1AF0BA95C9F712C0B13081F02D
:100730009FD0B1E008959CC0672F782F8827B85FBD
:1007400039F0B93FCCF3869577956795B395D9F78E
:100750003EF490958095709561957F4F8F4F9F4F98
:100760000895E89409C097FB3EF4909580957095A4
:1007700061957F4F8F4F9F4F9923A9F0F92F96E9ED
:10078000BB279395F695879577956795B795F11162
:10079000F8CFFAF4BB0F11F460FF1BC06F5F7F4FFF
:1007A0008F4F9F4F16C0882311F096E911C0772311
:1007B00021F09EE8872F762F05C0662371F096E81A
:1007C000862F70E060E02AF09A95660F771F881FE9
:1007D000DAF7880F9695879597F9089597F99F67A7
:1007E00080E870E060E008959FEF80EC08950024B9
:1007F0000A941616170618060906089500240A9486
:1008000012161306140605060895092E0394000C0B
:1008100011F4882352F0BB0F40F4BF2B11F460FF9A
:1008200004C06F5F7F4F8F4F9F4F089557FD9058C3
:10083000440F551F59F05F3F71F04795880F97FBA4
:10084000991F61F09F3F79F087950895121613065E
:100850001406551FF2CF4695F1DF08C0161617068D
:100860001806991FF1CF86957105610508940895C2
:10087000E894BB2766277727CB0197F90895EE0FF9
:10088000FF1F881F8BBF0790F691E02D1994F894F5
:02089000FFCF98
:0E08920042495244204F4E2046495245000034
:00000001FF
